:100000000C9462000C948A000C948A000C948A0070
:100010000C948A000C948A000C948A000C948A0038
:100020000C948A000C948A000C948A000C948A0028
:100030000C948A000C948A000C948A000C948A0018
:100040000C947E030C948A000C948A000C948A0011
:100050000C948A000C948A000C948A000C948A00F8
:100060000C948A000C948A000000000024002700F1
:100070002A0000000000250028002B0000000000DE
:1000800023002600290004040404040404040202DA
:100090000202020203030303030301020408102007
:1000A0004080010204081020010204081020000012
:1000B0000008000201000003040700000000000027
:1000C0000000090511241FBECFEFD8E0DEBFCDBF71
:1000D00011E0A0E0B1E0E4EAFAE002C005900D9280
:1000E000AA39B107D9F721E0AAE9B1E001C01D9210
:1000F000AD3BB207E1F710E0C2E6D0E004C02197C3
:10010000FE010E944A05C136D107C9F70E94C80303
:100110000C9450050C940000AF92BF92CF92DF92E6
:10012000EF92FF920F931F93CF93DF936C017B01AC
:100130008B01040F151FEB015E01AE18BF08C0173D
:10014000D10759F06991D601ED91FC910190F081B0
:10015000E02DC6010995892B79F7C501DF91CF9173
:100160001F910F91FF90EF90DF90CF90BF90AF90D5
:100170000895833081F028F4813099F08230A9F01D
:1001800008958730A9F08830C9F08430B1F48091A7
:1001900080008F7D03C0809180008F7780938000E6
:1001A000089584B58F7784BD089584B58F7DFBCF86
:1001B0008091B0008F778093B00008958091B00057
:1001C0008F7DF9CFCF93DF93ECEBF0E08491E8EAF9
:1001D000F0E0D491E4E9F0E0C491CC23A1F08111E6
:1001E0000E94B900EC2FF0E0EE0FFF1FE458FF4F24
:1001F000A591B491EC91ED2381E090E009F480E0C9
:10020000DF91CF91089580E090E0FACF1F93CF93D4
:10021000DF93282F30E0F901E255FF4F8491F90177
:10022000E656FF4FD491F901EA57FF4FC491CC2312
:10023000A9F0162F81110E94B900EC2FF0E0EE0F0B
:10024000FF1FEE58FF4FA591B4918FB7F894EC9132
:10025000111108C0D095DE23DC938FBFDF91CF91C1
:100260001F910895DE2BF8CFCF93DF9390E0FC0130
:10027000E656FF4F24918A579F4FFC0184918823B3
:10028000D1F090E0880F991FFC01E859FF4FA5912C
:10029000B491FC01EE58FF4FC591D49161110EC08D
:1002A0009FB7F8948C91E22FE0958E238C93288150
:1002B000E223E8839FBFDF91CF9108958FB7F89431
:1002C000EC91E22BEC938FBFF6CF3FB7F89480917F
:1002D0009F019091A001A091A101B091A20126B52A
:1002E000A89B05C02F3F19F00196A11DB11D3FBF6E
:1002F000BA2FA92F982F8827BC01CD01620F711D3D
:10030000811D911D42E0660F771F881F991F4A9536
:10031000D1F708958F929F92AF92BF92CF92DF92C2
:10032000EF92FF924B015C010E9465016B017C0121
:100330000E9465016C197D098E099F09683E734012
:1003400081059105A8F321E0821A9108A108B1085E
:1003500088EEC80E83E0D81EE11CF11C81149104C4
:10036000A104B10429F7FF90EF90DF90CF90BF90E8
:10037000AF909F908F900895089590E080E0089549
:1003800061E084E00E9406016EE170E080E090E0B0
:100390000E948A0160E084E00C9406018F929F9293
:1003A000AF92BF920F931F93CF93DF93CDB7DEB77A
:1003B000A1970FB6F894DEBF0FBECDBF19A2423091
:1003C00008F44AE08E010F5D1F4F842E912CB12C52
:1003D000A12CA50194010E942805E62FB901CA01AC
:1003E000EA3044F5E05DD801EE938D01232B242BF8
:1003F000252B79F790E080E0109769F0FD010190DE
:100400000020E9F73197AF014A1B5B0BBD0185EA7C
:1004100091E00E948C00A1960FB6F894DEBF0FBE4B
:10042000CDBFDF91CF911F910F91BF90AF909F9063
:100430008F900895E95CD7CFFC0101900020E9F787
:100440003197AF01481B590BBC0185EA91E00C9430
:100450008C00CF93DF93EC0160E08E810E94060157
:1004600061E08E810E94060160E08E810E9406019B
:100470008BE891E00197F1F7DF91CF910895CF924A
:10048000DF92EF92FF920F931F93CF93DF936C0154
:100490007C0187E0E80EF11CD0E0C0E0062F10E000
:1004A000B8010C2E02C0759567950A94E2F7617049
:1004B000F70181917F010E9406012196C430D10588
:1004C00079F7C601DF91CF911F910F91FF90EF90C7
:1004D000DF90CF900C942902CF92DF92EF92FF929F
:1004E0000F931F93CF93DF93EC01F62E642F8C8133
:1004F0000E9406018D818F3F19F060E00E94060185
:100500000F2D10E08F8584FF25C06E0187E0C80E97
:10051000D11CF12CE12CB8010E2C02C07595679509
:100520000A94E2F76170F60181916F010E94060161
:10053000FFEFEF1AFF0A88E0E816F10461F7CE0139
:10054000DF91CF911F910F91FF90EF90DF90CF90AF
:100550000C942902B80184E0759567958A95E1F7B6
:10056000CE010E943F026F2DCE01DF91CF911F91EE
:100570000F91FF90EF90DF90CF900C943F0240E0FE
:10058000682F85EA91E00C946C02CF93DF93613081
:1005900029F09091B40198609093B4016093B801F0
:1005A0001092B90190E49093BA018093BB01805CF2
:1005B0008093BC0161E08091A9010E943401809187
:1005C000AA018F3F19F061E00E94340161E080913F
:1005D000AB010E943401C5EAD1E09E01255A3140A9
:1005E0008091B40184FD0BC084E090E0219628172F
:1005F000390744F461E08E810E943401EECF88E037
:1006000090E0F4CF8BE39DE00197F1F760E08091FB
:10061000A9010E94060160E08091AB010E940601E1
:100620008091AA018F3F19F060E00E94060180913D
:10063000B40184FD39C063E085EA91E00E943F0285
:10064000CBE4D6E4CE010197F1F763E085EA91E0CF
:100650000E943F022197F1F763E085EA91E00E9452
:100660003F0283E592E00197F1F762E085EA91E0CD
:100670000E943F028091B40180620E94BF0284E028
:100680008093B5018CE00E94BF0281E00E94BF020E
:100690008BE39FE10197F1F782E08093B60186E05A
:1006A000DF91CF910C94BF0280620E94BF028BE465
:1006B00096E40197F1F78091B40180620E94BF0235
:1006C00083E592E00197F1F78091B40180620E9486
:1006D000BF02D0CF9091B801891710F08FEF890F2A
:1006E000E82FF0E0EB55FE4F848980680C94BF0240
:1006F00041E00E946C0281E090E008951F920F9209
:100700000FB60F9211242F933F938F939F93AF9324
:10071000BF9380919B0190919C01A0919D01B0910C
:100720009E0130919A0123E0230F2D3758F5019651
:10073000A11DB11D20939A0180939B0190939C0170
:10074000A0939D01B0939E0180919F019091A00183
:10075000A091A101B091A2010196A11DB11D8093AC
:100760009F019093A001A093A101B093A201BF911A
:10077000AF919F918F913F912F910F900FBE0F904E
:100780001F90189526E8230F0296A11DB11DD2CF08
:10079000789484B5826084BD84B5816084BD85B55C
:1007A000826085BD85B5816085BD80916E00816068
:1007B00080936E001092810080918100826080930E
:1007C0008100809181008160809381008091800010
:1007D0008160809380008091B10084608093B1003B
:1007E0008091B00081608093B00080917A00846035
:1007F00080937A0080917A00826080937A00809161
:100800007A00816080937A0080917A00806880937A
:100810007A001092C10064E084E10E94C50281E088
:100820000E94BF028BE39FE10197F1F761E085E051
:100830000E94340161E086E00E94340161E087E0BB
:100840000E94340161E084E00E94340161E080E0B4
:100850000E94340161E081E00E94340160E08EE09A
:100860000E94340180E00E946A038CE091E00E94C3
:100870001C02C0E0D0E00E94E200892B09F4BAC05B
:100880008091A3019091A40101969093A40180937B
:10089000A30181E00E946A038DE191E00E941C02A5
:1008A00082E00E946A038FE291E00E941C0261E0F4
:1008B00080E00E94060160E081E00E94060160E0A5
:1008C00085E00E94060160E087E00E94060161E089
:1008D00086E00E94060168EE73E080E090E00E94EE
:1008E0008A0160E080E00E94060160E081E00E94F1
:1008F000060182E00E946A038DE391E00E941C02DF
:100900000E94C00183E00E946A038BE491E00E9490
:100910001C02C090A301D090A4010D2C000CEE0885
:10092000FF084AE0C701B601F7FE0EC041E06DE2E4
:1009300085EA91E00E946C0266277727CB016C194B
:100940007D098E099F094AE00E94CE0160E085E0A2
:100950000E94060161E087E00E94060160E086E0F7
:100960000E9406010E94E200892BE1F782E00E94CA
:100970006A038EE591E00E941C0260E080E00E9424
:10098000060161E081E00E94060160E085E00E94CE
:10099000060160E087E00E94060161E086E00E94B7
:1009A000060168EE73E080E090E00E948A0160E05A
:1009B00080E00E94060160E081E00E94060182E082
:1009C0000E946A038CE691E00E941C020E94C00112
:1009D00061E085E00E94060160E087E00E94060178
:1009E00060E086E00E940601209709F444CF0E944F
:1009F000000041CF81E00E946A038AE791E00E94F3
:100A00001C0282E00E946A038DE891E00E941C02B1
:100A1000DFCFE5EAF1E01382128284E091E0918376
:100A200080838DE084838FEF85838CE086838BE0E9
:100A300087838AE0808789E0818788E082871386C0
:100A4000148615861686178661E080E10C94C5022F
:100A5000A1E21A2EAA1BBB1BFD010DC0AA1FBB1FC2
:100A6000EE1FFF1FA217B307E407F50720F0A21B34
:100A7000B30BE40BF50B661F771F881F991F1A94A1
:100A800069F760957095809590959B01AC01BD01CB
:100A9000CF010895EE0FFF1F0590F491E02D09940A
:040AA000F894FFCFF8
:100AA4000000000078038C00BD01BC01494E544590
:100AB4004C4C4547454E5420444F4F52004D6F76A1
:100AC400656D656E74204465746563746564004780
:100AD400617465204F70656E696E672100476174AB
:100AE40065204F70656E65642120004E756D6265EA
:100AF40072206F66207669736974733A20004761C7
:100B0400746520436C6F73696E6721004761746577
:100B140020436C6F7365642120004E6F204D6F7607
:100B2400656D656E742020202020202000476174AC
:0A0B34006520436C6F7365640000D8
:00000001FF
